:020000040000fa
:080000000002040000000000f2
:020000040000fa
:04000800e40200000e
:020000040000fa
:04000c00a802000046
:020000040000fa
:04001000ae0200003c
:020000040000fa
:04001400b402000032
:020000040000fa
:04001800ba02000028
:020000040000fa
:04001c00c00200001e
:020000040000fa
:04002000e4020000f6
:020000040000fa
:04002400e4020000f2
:020000040000fa
:04002800e4020000ee
:020000040000fa
:04002c00e4020000ea
:020000040000fa
:04003000e4020000e6
:020000040000fa
:04003400e4020000e2
:020000040000fa
:04003800e4020000de
:020000040000fa
:04003c00e4020000da
:020000040000fa
:04004000e4020000d6
:020000040000fa
:04004400e4020000d2
:020000040000fa
:04004800e4020000ce
:020000040000fa
:04004c00e4020000ca
:020000040000fa
:04005000e4020000c6
:020000040000fa
:04005400e0050000c3
:020000040000fa
:040058006a06000034
:020000040000fa
:04005c00e4020000ba
:020000040000fa
:04006000e4020000b6
:020000040000fa
:04006400e4020000b2
:020000040000fa
:04006800e4020000ae
:020000040000fa
:04006c00e4020000aa
:020000040000fa
:04007000e4020000a6
:020000040000fa
:04007400e4020000a2
:020000040000fa
:04007800e40200009e
:020000040000fa
:04007c00e40200009a
:020000040000fa
:04008000e402000096
:020000040000fa
:04008400e402000092
:020000040000fa
:04008800e40200008e
:020000040000fa
:04008c00e40200008a
:020000040000fa
:04009000e402000086
:020000040000fa
:04009400e402000082
:020000040000fa
:04009800e40200007e
:020000040000fa
:04009c00e40200007a
:020000040000fa
:0400a000e402000076
:020000040000fa
:0400a400e402000072
:020000040000fa
:0400a800e40200006e
:020000040000fa
:0400ac00e40200006a
:020000040000fa
:0400b000e402000066
:020000040000fa
:0400b400e402000062
:020000040000fa
:0400b800e40200005e
:020000040000fa
:0400bc00e40200005a
:020000040000fa
:0400c000e402000056
:020000040000fa
:0400c400e402000052
:020000040000fa
:0400c800e40200004e
:020000040000fa
:0400cc00e40200004a
:020000040000fa
:0400d000e402000046
:020000040000fa
:0400d400e402000042
:020000040000fa
:0400d800e40200003e
:020000040000fa
:0400dc00e40200003a
:020000040000fa
:0400e000e402000036
:020000040000fa
:0400e400e402000032
:020000040000fa
:0400e800e40200002e
:020000040000fa
:0400ec00e40200002a
:020000040000fa
:0400f000e402000026
:020000040000fa
:0400f400e402000022
:020000040000fa
:0400f800e40200001e
:020000040000fa
:0400fc00e40200001a
:020000040000fa
:04010000e402000015
:020000040000fa
:04010400e402000011
:020000040000fa
:04010800e40200000d
:020000040000fa
:04010c00e402000009
:020000040000fa
:040110007e06000067
:020000040000fa
:04011400e402000001
:020000040000fa
:04011800e4020000fd
:020000040000fa
:04011c00e4020000f9
:020000040000fa
:04012000e4020000f5
:020000040000fa
:04012400e4020000f1
:020000040000fa
:04012800e4020000ed
:020000040000fa
:04012c00e4020000e9
:020000040000fa
:04013000e4020000e5
:020000040000fa
:04013400e4020000e1
:020000040000fa
:04013800e4020000dd
:020000040000fa
:04013c00e4020000d9
:020000040000fa
:04014000e4020000d5
:020000040000fa
:04014400e4020000d1
:020000040000fa
:04014800e4020000cd
:020000040000fa
:04014c00e4020000c9
:020000040000fa
:04015000e4020000c5
:020000040000fa
:04015400e4020000c1
:020000040000fa
:04015800e4020000bd
:020000040000fa
:04015c00e4020000b9
:020000040000fa
:04016000e4020000b5
:020000040000fa
:04016400e4020000b1
:020000040000fa
:04020800e40200000c
:020000040000fa
:04020c00c602000026
:020000040000fa
:04021000cc0200001c
:020000040000fa
:04021400d202000012
:020000040000fa
:04021800d802000008
:020000040000fa
:04021c00de020000fe
:020000040000fa
:04022000e4020000f4
:020000040000fa
:04022400e4020000f0
:020000040000fa
:04022800e4020000ec
:020000040000fa
:04022c00e4020000e8
:020000040000fa
:04023000e4020000e4
:020000040000fa
:04023400e4020000e0
:020000040000fa
:04023800e4020000dc
:020000040000fa
:04023c00e4020000d8
:020000040000fa
:04024000e4020000d4
:020000040000fa
:04024400e4020000d0
:020000040000fa
:04024800e4020000cc
:020000040000fa
:04024c00e4020000c8
:020000040000fa
:04025000e4020000c4
:020000040000fa
:04025400e4020000c0
:020000040000fa
:04025800e4020000bc
:020000040000fa
:04025c00e4020000b8
:020000040000fa
:04026000e4020000b4
:020000040000fa
:04026400e4020000b0
:020000040000fa
:04026800e4020000ac
:020000040000fa
:04026c00e4020000a8
:020000040000fa
:04027000e4020000a4
:020000040000fa
:04027400e4020000a0
:020000040000fa
:04027800e40200009c
:020000040000fa
:04027c00e402000098
:020000040000fa
:04028000e402000094
:020000040000fa
:04028400e402000090
:020000040000fa
:04028800e40200008c
:020000040000fa
:04028c00e402000088
:020000040000fa
:04029000e402000084
:020000040000fa
:04029400e402000080
:020000040000fa
:04029800e40200007c
:020000040000fa
:04029c00e402000078
:020000040000fa
:0402a000e402000074
:020000040000fa
:0402a400e402000070
:020000040000fa
:0402a800e40200006c
:020000040000fa
:0402ac00e402000068
:020000040000fa
:0402b000e402000064
:020000040000fa
:0402b400e402000060
:020000040000fa
:0402b800e40200005c
:020000040000fa
:0402bc00e402000058
:020000040000fa
:0402c000e402000054
:020000040000fa
:0402c400e402000050
:020000040000fa
:0402c800e40200004c
:020000040000fa
:0402cc00e402000048
:020000040000fa
:0402d000e402000044
:020000040000fa
:0402d400e402000040
:020000040000fa
:0402d800e40200003c
:020000040000fa
:0402dc00e402000038
:020000040000fa
:0402e000e402000034
:020000040000fa
:0402e400e402000030
:020000040000fa
:0402e800e40200002c
:020000040000fa
:0402ec00e402000028
:020000040000fa
:0402f000e402000024
:020000040000fa
:0402f400e402000020
:020000040000fa
:0402f800e40200001c
:020000040000fa
:0402fc00e402000018
:020000040000fa
:04030000e402000013
:020000040000fa
:04030400e40200000f
:020000040000fa
:04030800e40200000b
:020000040000fa
:04030c00e402000007
:020000040000fa
:04031000e402000003
:020000040000fa
:04031400e4020000ff
:020000040000fa
:04031800e4020000fb
:020000040000fa
:04031c00e4020000f7
:020000040000fa
:04032000e4020000f3
:020000040000fa
:04032400e4020000ef
:020000040000fa
:04032800e4020000eb
:020000040000fa
:04032c00e4020000e7
:020000040000fa
:04033000e4020000e3
:020000040000fa
:04033400e4020000df
:020000040000fa
:04033800e4020000db
:020000040000fa
:04033c00e4020000d7
:020000040000fa
:04034000e4020000d3
:020000040000fa
:04034400e4020000cf
:020000040000fa
:04034800e4020000cb
:020000040000fa
:04034c00e4020000c7
:020000040000fa
:04035000e4020000c3
:020000040000fa
:04035400e4020000bf
:020000040000fa
:04035800e4020000bb
:020000040000fa
:04035c00e4020000b7
:020000040000fa
:04036000e4020000b3
:020000040000fa
:04036400e4020000af
:020000040000fa
:100400006f8120000e5f24000e01880000000000b4
:10041000000020000000e000020032000001200087
:10042000200288000c00070040712000010020001d
:1004300011000700000020000000e0000200320070
:10044000000002000000000018050200000000008b
:100450000040da000000fe004440a9000000200037
:100460000000e0000300320000002000a00188002e
:100470004440a80000000600910188008000780038
:100480000000eb0015003700e280400032a0b4000d
:100490009101ba00e280400032a0b4009102ba009b
:1004a000e280400032a0b4000002eb00472bde00e7
:1004b000f507b200602ce10004003a000059eb009f
:1004c0008301e900fdff3e00040037006128e100e0
:1004d000010032000082eb000b00070011c3ba00dc
:1004e0001101ba000604e00003003a000200e00037
:1004f000e5ff3a0000000600f607b200960188000a
:1005000082007800f5ff37003159ba008301e90015
:100510000c0032002159ba008301e90008003200c2
:100520000400e00003003a00e280400032a0b40082
:10053000f5ff370011d9ba008301e900faff3a004c
:100540008100e800e180400032a0b4000000060015
:100550000000fa008020a900ffff37000000fa0029
:100560008060a900ffff37000000fa008040a9006a
:10057000ffff37000000fa008080a900ffff37006e
:100580000000fa0080a0a900ffff37000000fa0079
:100590008020a900ffff37000000fa008060a9005a
:1005a000ffff37000000fa008040a900ffff37007e
:1005b0000000fa008080a900ffff37000000fa0069
:1005c00080a0a900ffff37000000fa00ffff3700fe
:020000040000fa
:1005d0000000fa00113a8000f0fb2f00008160005b
:1005e00060042000710520002374200080497800f9
:1005f00081497800824978002135800000fe2f0073
:10060000008060004001b300203588002136800062
:1006100000fe2f00008060003000b300203688000c
:10062000e134800000fe2f0000806000a000b300d5
:10063000e0348800e1348000f00f2e0080806000fc
:1006400000b0200001007000e0348800f134800028
:1006500000fe2f00008060009001b300f03488009d
:10066000a135800000fe2f00008060008001b300f3
:10067000a03588007136800000fe2f0000806000e9
:10068000e000b30070368800113a800000042000ba
:100690000101700060042000710520002374200017
:1006a000804978008149780082497800c0e2a90039
:1006b000c142a900b3000700440007001200070070
:1006c00031000700020007000080fa000000060069
:1006d0000000fa0000002800002e8800c225ef006c
:1006e000f07c2000202e8800f0ff2000402e8800a3
:1006f00000042000502e880000f02f00a02e88005b
:100700000080fa00000006000200fa002002a900a2
:10071000001180000010a1000020a100001188003d
:1007200020a2a9002062a90020c2a900a0022000e6
:100730004011880023a2a90023e2a9001011800023
:100740000060a1000070a100101188009580a80031
:100750009560a80021e2a8002342a8000000eb0059
:10076000000f780002003700000000001e0fe800b4
:10077000f00321009e007800808f5000faff3400c3
:100780000080fa00000006000000fa00f0df2800f8
:10079000300f88009b40a800e2e1a800100f800005
:1007a0000040a1000050a0000060a100100f8800d0
:1007b000000f80000080a0000090a00000a0a0001a
:1007c000000f88000080fa00000006000000fa0018
:1007d000002080000080a1000090a10000a0a000e7
:1007e000002088000000000001208000000e200092
:1007f0008080600000082000808f5000faff3a00df
:10080000902080000030a0000040a0000050a00018
:100810009020880012e4a800902080000080a000b2
:100820000090a10000a0a0009020880090208000ef
:100830000000a1000010a1000020a000902088006e
:1008400012c4a800802080000060a0000070a000fa
:10085000802088008120800000fc2f000080600044
:10086000802088000004a800c02080000000a100b3
:100870000010a100c0208800802180007f0060005f
:1008800080218800802180000000a1000010a100cc
:1008900080218800f0032000902188000022800041
:1008a000ff00600000002f0001007000002288009f
:1008b000002280000000a0000010a000002288009c
:1008c00000582f00902188003064a8004064a800e0
:1008d000002180000000a0000010a0000020a00067
:1008e0000030a000002188001404a8000004a90022
:1008f0003020800000d0a10000e0a00000f0a000a7
:10090000302088003120800000fe2f000080600031
:100910000030a00030208800002080000080a1006e
:100920000090a10000a0a1000020880000000000ad
:1009300001208000000e2000008060000000e00028
:10094000fbff3a0030e4a80031e4a80032e4a8003c
:1009500033e4a80034e4a80035e4a80036e4a80095
:1009600037e4a800d023210000308a0000f02000e6
:1009700010308a0080c0200020308a000080fa00f9
:10098000000006000000fa0081c3a90081a3a800ae
:10099000001c80000040a1000050a000001c880046
:1009a000001c80000000a1000010a100001c8800b5
:1009b00060042000101c880070002000501c88007b
:1009c00020442000401c880000602000201c88007b
:1009d00081e3a8009480a8008dc3a9008da3a9007d
:1009e000601c80000040a1000050a000601c880036
:1009f000601c80000000a1000010a100601c8800a5
:100a000020022000701c880070002000b01c8800ac
:100a100000442000a01c880000602000801c88008a
:100a20008de3a80095c0a8000080fa000000060031
:100a30000200fa00d1000700e5fe07001011800057
:100a4000680060000000e000010032005b00370039
:100a500010118000620060000000e000020032001f
:100a60002222a900550037001011800003c8bf00e2
:100a70000004e00001003200c4e2a80002c8bf0088
:100a80000004e00001003200c4e2a90060408000e0
:100a90000000e0000b003a00304080005040880029
:100aa00051408000f00f200000806000504088001e
:100ab00040408000c800dd00504080000100700010
:100ac000504088000000eb00000f7800514080008b
:100ad00000002800008f60001e0078000000e00089
:100ae0000600320051408000f0ff270000806000c7
:100af000504088000468ef000200370010c0b300c7
:100b000004e8b70004c8bf000080fb00610060007b
:100b10004a00dd0022168000f1bf2f008100610035
:100b20000100700020168800504080006500b90068
:100b300080007800300020000001780011000900da
:100b40008200d800b02e8800804080000000e000c5
:100b50000a003d00804080000080ea0080007800ac
:100b6000000028000100700090408800200f8000e5
:100b70000000ea00a04088000600370081408000a5
:100b8000f0ff27000080600090408800200f800068
:100b9000a0408800d0bc2a0030308a00d0bc2a0097
:100ba00040308a00d0bc2a0050308a00d0bc2a00d5
:100bb00060308a003064a800a0ff37009fff370034
:100bc000809fbe00821f78003400f80000002000e3
:100bd000a00188000000fa00301180000040780079
:100be00000e8b70000c8bf000000fb00201188002b
:100bf000018020009140780070c6b30080cf500083
:100c000003003a0010c0b30002e8b700210037002b
:100c1000018020009140780030c7b30080cf5000a1
:100c200004003a0010c0b30003e8b7000268ef0008
:100c300018003700018020009140780050c7b300b1
:100c400080cf500004003a00500720002011880097
:100c50000c28ef000f00370060408000018020006a
:100c6000914078008100fb0000014000608020007e
:100c70000000410001087800604080000000e800aa
:100c80006040880060408000e10f500001003400a7
:100c90000c28ef00904080004880de002011880082
:100ca0009040800020118800a04080004880de0035
:100cb00020118800a0408000201188008560a900d4
:100cc0000080fa003400f9004f0178004f00be00a8
:100cd000004006003400f800881f7800080020005b
:100ce000a80188004f0478000000fa008580a90060
:100cf0000080fa003400f90000400600809fbe002a
:100d00003400f80000002000a00188000000fa0074
:100d1000904080004880de002011880090408000d4
:100d200020118800a04080004880de00201188004b
:100d3000a040800020118800010f8000008020006a
:100d4000008060000000e00004003200804080006d
:100d50000000e800804088000300370080408000e9
:100d60000000e900804088008b40a9000080fa0064
:100d70003400f9004f00be00004006000000fa00f9
:100d800090022000303a8800203a80000060a100e4
:100d90000070a100203a8800213a800000fe2f0058
:100da00000806000203a880050012000403a88000e
:100db00040a7a9003200200080072000a1092000e0
:100dc0003374200080497800814978008249780096
:100dd0001200200060042000710520002374200010
:100de000804978008149780082497800000000003d
:100df000113a80000000270080806000000023007e
:100e0000808f5000faff3a0000000000113a800085
:100e100000022000008060000000e000fbff3200c4
:080e20000080fa00000006004a
:020000040000fa
:100e2800004600000002000000000000000800006a
:0c0e3800160000000000000022078000ef
:020000040000fa
:040e440000000000aa
:020000040000fa
:0200000401f009
:04000000ffff0000fe
:020000040000fa
:0200000401f009
:04000400ffff0000fa
:020000040000fa
:0200000401f009
:04000800ffff0000f6
:020000040000fa
:0200000401f009
:04000c00820000006e
:020000040000fa
:0200000401f009
:040010006500000087
:020000040000fa
:0200000401f009
:040014005f00000089
:020000040000fa
:0200000401f009
:04001800770000006d
:020000040000fa
:0200000401f009
:04001c00ddff000004
:00000001FF
