:020000040000fa
:080000000002040000000000f2
:020000040000fa
:0400080044040000ac
:020000040000fa
:04000c0008040000e4
:020000040000fa
:040010000e040000da
:020000040000fa
:0400140014040000d0
:020000040000fa
:040018001a040000c6
:020000040000fa
:04001c0020040000bc
:020000040000fa
:040020004404000094
:020000040000fa
:040024004404000090
:020000040000fa
:04002800440400008c
:020000040000fa
:04002c004404000088
:020000040000fa
:040030004404000084
:020000040000fa
:040034004404000080
:020000040000fa
:04003800440400007c
:020000040000fa
:04003c004404000078
:020000040000fa
:040040004404000074
:020000040000fa
:040044004404000070
:020000040000fa
:04004800440400006c
:020000040000fa
:04004c004404000068
:020000040000fa
:040050004404000064
:020000040000fa
:04005400c8020000de
:020000040000fa
:04005800520300004f
:020000040000fa
:04005c004404000058
:020000040000fa
:040060004404000054
:020000040000fa
:040064004404000050
:020000040000fa
:04006800440400004c
:020000040000fa
:04006c004404000048
:020000040000fa
:040070004404000044
:020000040000fa
:040074004404000040
:020000040000fa
:04007800440400003c
:020000040000fa
:04007c004404000038
:020000040000fa
:040080004404000034
:020000040000fa
:040084004404000030
:020000040000fa
:04008800440400002c
:020000040000fa
:04008c004404000028
:020000040000fa
:040090004404000024
:020000040000fa
:040094004404000020
:020000040000fa
:04009800440400001c
:020000040000fa
:04009c004404000018
:020000040000fa
:0400a0004404000014
:020000040000fa
:0400a4004404000010
:020000040000fa
:0400a800440400000c
:020000040000fa
:0400ac004404000008
:020000040000fa
:0400b0004404000004
:020000040000fa
:0400b400a60300009f
:020000040000fa
:0400b80044040000fc
:020000040000fa
:0400bc0044040000f8
:020000040000fa
:0400c00044040000f4
:020000040000fa
:0400c40044040000f0
:020000040000fa
:0400c80044040000ec
:020000040000fa
:0400cc0044040000e8
:020000040000fa
:0400d00044040000e4
:020000040000fa
:0400d40044040000e0
:020000040000fa
:0400d80044040000dc
:020000040000fa
:0400dc0044040000d8
:020000040000fa
:0400e00044040000d4
:020000040000fa
:0400e40044040000d0
:020000040000fa
:0400e80044040000cc
:020000040000fa
:0400ec0044040000c8
:020000040000fa
:0400f00044040000c4
:020000040000fa
:0400f40044040000c0
:020000040000fa
:0400f80044040000bc
:020000040000fa
:0400fc0044040000b8
:020000040000fa
:0401000044040000b3
:020000040000fa
:0401040044040000af
:020000040000fa
:0401080044040000ab
:020000040000fa
:04010c0044040000a7
:020000040000fa
:040110006603000082
:020000040000fa
:04011400440400009f
:020000040000fa
:04011800440400009b
:020000040000fa
:04011c004404000097
:020000040000fa
:040120004404000093
:020000040000fa
:04012400440400008f
:020000040000fa
:04012800440400008b
:020000040000fa
:04012c004404000087
:020000040000fa
:040130004404000083
:020000040000fa
:04013400440400007f
:020000040000fa
:04013800440400007b
:020000040000fa
:04013c004404000077
:020000040000fa
:040140004404000073
:020000040000fa
:04014400440400006f
:020000040000fa
:04014800440400006b
:020000040000fa
:04014c004404000067
:020000040000fa
:040150004404000063
:020000040000fa
:04015400440400005f
:020000040000fa
:04015800440400005b
:020000040000fa
:04015c004404000057
:020000040000fa
:040160004404000053
:020000040000fa
:04016400440400004f
:020000040000fa
:0402080044040000aa
:020000040000fa
:04020c0026040000c4
:020000040000fa
:040210002c040000ba
:020000040000fa
:0402140032040000b0
:020000040000fa
:0402180038040000a6
:020000040000fa
:04021c003e0400009c
:020000040000fa
:040220004404000092
:020000040000fa
:04022400440400008e
:020000040000fa
:04022800440400008a
:020000040000fa
:04022c004404000086
:020000040000fa
:040230004404000082
:020000040000fa
:04023400440400007e
:020000040000fa
:04023800440400007a
:020000040000fa
:04023c004404000076
:020000040000fa
:040240004404000072
:020000040000fa
:04024400440400006e
:020000040000fa
:04024800440400006a
:020000040000fa
:04024c004404000066
:020000040000fa
:040250004404000062
:020000040000fa
:04025400440400005e
:020000040000fa
:04025800440400005a
:020000040000fa
:04025c004404000056
:020000040000fa
:040260004404000052
:020000040000fa
:04026400440400004e
:020000040000fa
:04026800440400004a
:020000040000fa
:04026c004404000046
:020000040000fa
:040270004404000042
:020000040000fa
:04027400440400003e
:020000040000fa
:04027800440400003a
:020000040000fa
:04027c004404000036
:020000040000fa
:040280004404000032
:020000040000fa
:04028400440400002e
:020000040000fa
:04028800440400002a
:020000040000fa
:04028c004404000026
:020000040000fa
:040290004404000022
:020000040000fa
:04029400440400001e
:020000040000fa
:04029800440400001a
:020000040000fa
:04029c004404000016
:020000040000fa
:0402a0004404000012
:020000040000fa
:0402a400440400000e
:020000040000fa
:0402a800440400000a
:020000040000fa
:0402ac004404000006
:020000040000fa
:0402b0004404000002
:020000040000fa
:0402b40044040000fe
:020000040000fa
:0402b80044040000fa
:020000040000fa
:0402bc0044040000f6
:020000040000fa
:0402c00044040000f2
:020000040000fa
:0402c40044040000ee
:020000040000fa
:0402c80044040000ea
:020000040000fa
:0402cc0044040000e6
:020000040000fa
:0402d00044040000e2
:020000040000fa
:0402d40044040000de
:020000040000fa
:0402d80044040000da
:020000040000fa
:0402dc0044040000d6
:020000040000fa
:0402e00044040000d2
:020000040000fa
:0402e40044040000ce
:020000040000fa
:0402e80044040000ca
:020000040000fa
:0402ec0044040000c6
:020000040000fa
:0402f00044040000c2
:020000040000fa
:0402f40044040000be
:020000040000fa
:0402f80044040000ba
:020000040000fa
:0402fc0044040000b6
:020000040000fa
:0403000044040000b1
:020000040000fa
:0403040044040000ad
:020000040000fa
:0403080044040000a9
:020000040000fa
:04030c0044040000a5
:020000040000fa
:0403100044040000a1
:020000040000fa
:04031400440400009d
:020000040000fa
:040318004404000099
:020000040000fa
:04031c004404000095
:020000040000fa
:040320004404000091
:020000040000fa
:04032400440400008d
:020000040000fa
:040328004404000089
:020000040000fa
:04032c004404000085
:020000040000fa
:040330004404000081
:020000040000fa
:04033400440400007d
:020000040000fa
:040338004404000079
:020000040000fa
:04033c004404000075
:020000040000fa
:040340004404000071
:020000040000fa
:04034400440400006d
:020000040000fa
:040348004404000069
:020000040000fa
:04034c004404000065
:020000040000fa
:040350004404000061
:020000040000fa
:04035400440400005d
:020000040000fa
:040358004404000059
:020000040000fa
:04035c004404000055
:020000040000fa
:040360004404000051
:020000040000fa
:04036400440400004d
:020000040000fa
:10040000cf8320000e5f24000e0188000000000052
:10041000000020000000e000020032000001200087
:100420002002880014000700190107000000e00006
:1004300003003a00c0cc2000010020000200370079
:100440000000200001002000810f70000100320038
:1004500014000700000020000000e000020032004d
:100460000000020000000000300a0200000000004e
:100470000040da000000fe004440a9000000200017
:100480000000e0000300320000002000a00188000e
:100490004440a800000006008a1f78008b1f7800e7
:1004a0000000060091018800800478000000eb0045
:1004b0001a003700e284440032a0b4009905ba0063
:1004c000e284440032a0b4009906ba00e2844400f9
:1004d00032a0b4000006eb00476fde00fd07b2005b
:1004e000636ce10003003a00ebff07000000eb0043
:1004f0000a003700606ce10004003a00005deb0088
:100500008b05e900fdff3e00040037006168e10053
:10051000010032000086eb000b00070019c7ba008b
:100520001905ba000e04e00003003a000a00e000da
:10053000e0ff3a0000000600fe07b2009e018800be
:100540008a047800f5ff3700395dba008b05e900b1
:100550000c003200295dba008b05e900080032006a
:100560000c00e00003003a00e284440032a0b40032
:10057000f5ff370019ddba008b05e900faff3a00f4
:100580008904e800e184440032a0b40000000600c1
:10059000809fbe00821f78003400f8000000200019
:1005a000a00188000000fa003011800000407800af
:1005b00000e8b70000c8bf000000fb002011880061
:1005c000018020009140780070c6b30080cf5000b9
:1005d00003003a0010c0b30002e8b7002100370062
:1005e000018020009140780030c7b30080cf5000d8
:1005f00004003a0010c0b30003e8b7000268ef003f
:1006000018003700018020009140780050c7b300e7
:1006100080cf500004003a005007200020118800cd
:100620000c28ef000f0037006040800001802000a0
:10063000914078008100fb000001400060802000b4
:100640000000410001087800604080000000e800e0
:100650006040880060408000e10f500001003400dd
:100660000c28ef00904080004880de0020118800b8
:100670009040800020118800a04080004880de006b
:1006800020118800a0408000201188008560a9000a
:100690000080fa003400f9004f0178004f00be00de
:1006a000004006003400f800881f78000800200091
:1006b000a80188004f0478000000fa008580a90096
:1006c0000080fa003400f90000400600809fbe0060
:1006d0003400f80000002000a00188000000fa00ab
:1006e000904080004880de0020118800904080000b
:1006f00020118800a04080004880de002011880082
:10070000a040800020118800010f800000802000a0
:10071000008060000000e0000400320080408000a3
:100720000000e8008040880003003700804080001f
:100730000000e900804088008b40a9000080fa009a
:100740003400f9004f00be0000400600809fbe004c
:100750000000fa0050208000620060000000e0000d
:100760002200320000218000620060000000e000f2
:1007700007003200a082200051c0b3000148780079
:10078000d082200011c0b300014878001500370066
:1007900000218000640060000000e00007003200db
:1007a000a082200051c0b30001487800d082200010
:1007b00021c0b300014878000a0037000021800002
:1007c000680060000000e00006003200a082200007
:1007d00051c0b30001487800d082200031c0b3007e
:1007e000014878000a24a900050037005020800045
:1007f000610060000000e000010032000a04a9006e
:100800008860a9000080fa004f00be00004006008a
:100810000000fa008020a900ffff37000000fa0066
:100820008060a900ffff37000000fa008040a900a7
:10083000ffff37000000fa008080a900ffff3700ab
:100840000000fa0080a0a900ffff37000000fa00b6
:100850008020a900ffff37000000fa008060a90097
:10086000ffff37000000fa008040a900ffff3700bb
:100870000000fa008080a900ffff37000000fa00a6
:1008800080a0a900ffff37000000fa00ffff37003b
:04089000000005005f
:020000040000fa
:100894000e00fa00600798006000b800008fbe00e8
:1008a4006000b80020079800310798006000b80085
:1008b40040079800510798006e0090002040900077
:1008c400e34f50004a003a006e009000200190006f
:1008d400b001900000002000c1ff21000202780056
:1008e40003017800800178000100780003026200af
:1008f400000061008000eb00c000dd00000020006b
:100904000001be006120b800000171008181710006
:100914004018de0001002000008fbe0032002000dd
:10092400030020001e0f41005e9749006e009000f6
:1009340020019000b001900000fc2f003100200045
:100944000202780003017800800178000100780039
:1009540003026200000061008000eb00c000dd00c3
:10096400000020000001be006120b80000017100f9
:10097400818171004a1add004610de000000720019
:10098400c618de0020079800310798006e0090001a
:10099400b0009000200090004a09dd00c601de008e
:1009a400830171004a01dd00f0ff2f0001002000e7
:1009b40002027800030178008001780001007800c9
:1009c40003026200000061008000eb00c000dd0053
:1009d400000020000001be006120b8000001710089
:1009e400818171004207980053079800170037006f
:1009f4006e00900020019000b0019000f07f200074
:100a040001002000020278000301780080017800d0
:100a14000100780003026200000061008000eb0026
:100a2400c000dd00000020000001be006120b8000d
:100a340000017100818171004218dd00ce10de00da
:100a4400810070004210dd00008fbe006e00900037
:100a540010409000e24f500024003a006e009000d5
:100a640020409000e34f500006003a004e009000f2
:100a7400de0090000090a000400798005107980005
:100a8400010037001e10a0006e009000304090005e
:100a94000080fb009e0078004401dd00006024001b
:100aa40000004100010878006e0090003040900082
:100ab4000080fb00ae0090004401dd0020602400b3
:100ac40000004100010878006e0090003040900062
:100ad4000080fb00ce0090004401dd004060240053
:100ae40000004100010878006d0037006e0090009e
:100af400005090000081fb008001eb00f00020001a
:100b040001002000020278000301780080017800cf
:100b14000100780003026200000061008000eb0025
:100b2400c000dd00000020000001be006120b8000c
:100b340000017100818171004e009000de00900080
:100b44000000410081804900400798005107980047
:100b54006e009000304090000080fb009e00780002
:100b64004401dd0000602400000041000108780019
:100b74006e009000304090000080fb00ae009000ba
:100b84004401dd00206024000000410001087800d9
:100b94006e009000304090000080fb00ce0090007a
:100ba4004401dd0040602400000041000108780099
:100bb4006e009000304090000080fb00ee0090003a
:100bc400914890008180fb004809dd00ee00900010
:100bd400814890008180fb00810041004401dd00d8
:100be4006060240000004100010878006e0090005d
:100bf400304090000080fb00ee009000b14890006f
:100c04008180fb004809dd00ee009000a1489000bf
:100c14008180fb00810041004401dd0080602400ec
:100c240000004100010878006e0090003040900000
:100c34000080fb00ee009000d14890008180fb0012
:100c44004809dd00ee009000c14890008180fb005f
:100c5400810041004401dd00a06024000000410047
:100c6400010878006e009000304090000080fb0086
:100c7400ee009000f14890008180fb004809dd00ff
:100c8400ee009000e14890008180fb00810041006b
:100c94004401dd00c0602400000041000108780028
:100ca4003064a8000080fa00000006000a00fa0080
:100cb400400798000000eb00100798000000eb00cc
:100cc400000f78006000b8002007980031079800f2
:100cd4004e009000304090000080fb00c400dd0016
:100ce4000060240000804000100078006100600073
:100cf400100798001e0090000000e0001a003a005f
:100d04004e009000304090000080fb00c400dd00e5
:100d1400006024000080400090007800c0ff2100a3
:100d2400008060004200de008000eb004e01900075
:100d340020019800310198004e00900041c0b3009a
:100d4400214098004e009000304090000080fb004d
:100d5400c400dd0000602400008040001000780022
:100d6400620f60006b0037004e009000304090002e
:100d74000080fb00c400dd0000602400008040000f
:100d8400100078006101b800c0ff210001002000bc
:100d940002027800030178008001780001007800e5
:100da40003026200000061008000eb00c000dd006f
:100db400000020000001be006120b80000017100a5
:100dc4008181710022079800330798002e0090005b
:100dd400be009000c000dd00000020004e01900025
:100de40020019800310198004e009000304090009e
:100df4000080fb004400dd008080e80000602400e7
:100e040000804000100078006101b800f0ff20006d
:100e140001002000020278000301780080017800bc
:100e24000100780003026200000061008000eb0012
:100e3400c000dd00000020000001be006120b800f9
:100e44000001710081817100220798003307980026
:100e54004e00900020019000b00190002e029000fe
:100e6400be0290004628dd00ca20de00810070002a
:100e74004620dd0002004000838048004e019000bf
:100e840020019800310198004e00900030409000fd
:100e94000080fb004400dd00e4004000006024000a
:100ea40000804000100078004a00de008000eb0063
:100eb40020079800310798004e0090002001900010
:100ec400b00190002e009000be009000020040008f
:100ed400838048004e019000200198003101980061
:100ee4004e00900031c0b300214098004e009000a5
:100ef400304090000080fb004400dd00e40040002e
:100f04000060240000804000900078000020200051
:100f1400008f60001e007800e10f500004003a00ca
:100f24004e00900021c0b300114098006b003700c0
:100f34004e00900011c0b300114098004e00900084
:100f4400304090000080fb004400dd00e6004000db
:100f54000060240000804000100078008040780089
:100f64004e009000014898004e00900030409000e0
:100f74000080fb004400dd00e60040000060240027
:100f840000804000100078004800de0080407800b7
:100f94004e009000114898004e00900030409000a0
:100fa4000080fb004400dd00e800400000602400f5
:100fb4000080400010007800804078004e009000cf
:100fc400214898004e009000304090000080fb00c3
:100fd4004400dd00e8004000006024000080400080
:100fe400100078004800de00804078004e00900039
:100ff400314898004e009000304090000080fb0083
:101004004400dd00ea00400000602400008040004d
:1010140010007800804078004e009000414898000d
:101024004e009000304090000080fb004400dd0042
:10103400ea004000006024000080400010007800b6
:101044004800de00804078004e009000514898002f
:101054004e009000304090000080fb004400dd0012
:10106400ec00400000602400008040001000780084
:10107400804078004e009000614898004e00900037
:10108400304090000080fb004400dd00ec00400094
:101094000060240000804000100078004800de005a
:1010a400804078004e009000714898004e009000f7
:1010b400304090000080fb004400dd00e40040006c
:1010c4000060240000804000100078000040780098
:1010d400ef4060004e009000015098004e009000d8
:1010e40030409000020007000080fa000000060073
:1010f4000200fa00004f78000021800062006000c6
:101104000000e000050032001e407800e14f50006e
:1011140002003a002024a9001100370000218000b9
:10112400640060000000e000050032001e4078000a
:10113400e24f500002003a002044a90008003700a2
:1011440000218000680060000000e000040032001c
:101154001e407800e34f500001003a002064a900cb
:101164000080fa00000006000000fa000120800060
:10117400f08f2f000080600000a0a00000208800f5
:101184000000000001208000000e2000808060002c
:1011940000082000808f5000faff3a009120800060
:1011a40080032000010070009020880012e4a80051
:1011b40091208000f08f2f0080806000005020007c
:1011c40001007000902088009120800080ff2f0093
:1011d400008060000020a0009020880012c4a800b5
:1011e40081208000000c2000010070008020880015
:1011f4008120800000fc2f00008060008020880097
:1012040031208000f0ff2100008060003020880041
:101214000004a800c1208000c0ff2f0000806000ef
:10122400c02088000080eb009021880030fe2f0051
:10123400802188007067250010228800001a290088
:1012440000228800802180000030a00080218800d6
:10125400002280000030a0000022880001218000cc
:1012640000ff2f00008060000000a0000021880023
:101274001404a800c120800030ff2f00008060000b
:101284000020a000c02088000080eb00b02188006e
:1012940030fe2f00a02188008067250030228800be
:1012a400001a290020228800a02180000030a0001c
:1012b400a0218800202280000030a0002022880085
:1012c40001218000f0f02f00008060000050a00099
:1012d400002188001424a800c1208000f0fc2f0005
:1012e400008060000050a000c020880090672500a6
:1012f40050228800001a290040228800c021800062
:101304000030a000c0218800402280000030a000ee
:101314004022880001218000f00f2f0080806000af
:101324000030200001007000002188001444a8004f
:101334000004a90001208000f08f2f0000806000cd
:10134400002088000000000001208000000e200022
:10135400008060000000e000fbff3a002a24ef0058
:101364005021800040218800402180001021880005
:10137400102180000021880030e4a80031e4a90095
:1013840032e4a90033e4a900802180003000b300d6
:10139400802188002024ef000a24a9009860a80076
:1013a4000c04a8000c24a8000080fa000000060029
:1013b4000000fa0081c3a90081a3a800011c8000d9
:1013c400f0fc2f00008060000050a000001c88008a
:1013d400011c8000c0ff2f0000806000001c8800fa
:1013e40060042000101c880070002000501c88003d
:1013f40020442000401c880000602000201c88003d
:1014040081e3a80099c3a90099a3a900c11c800085
:10141400f0fc2f00008060000050a000c01c880079
:10142400c11c8000c0ff2f0000806000c01c880029
:1014340020022000d01c880070002000101d8800ad
:1014440000442000001d880000602000e01c88008b
:1014540099e3a8000080fa00000006000200fa00e8
:10146400050107008d0007009081200011c0b30022
:1014740001487800a081200031c0b3000148780001
:10148400b08120008040eb00014878003012200039
:1014940001002000e0408800f14088000082200024
:1014a40051c5b300014878001082200051c5b30033
:1014b400014878002082200051c5b300014878001b
:1014c4003082200051c5b3000148780040822000da
:1014d40051c5b300014878005082200051c5b300c3
:1014e400014878006082200051c5b30001487800ab
:1014f4007082200051c5b30001487800808220002a
:1015040081c0b30001487800704f23000501070033
:1015140080812000defc070001003700000000008d
:1015240010118000680060000000e000010032003b
:101534005900370010118000620060000000e000d4
:10154400020032002222a90053003700101180004b
:1015540003c8bf000004e00001003200c4e2a80098
:1015640002c8bf000004e00001003200c4e2a90088
:10157400604080000000e0000b003a003040800032
:101584005040880051408000f00f2000008060002f
:101594005040880040408000c800dd00504080007a
:1015a40001007000504088000000eb00000f78003c
:1015b4005140800000002800008f60001e00780069
:1015c4000000e0000600320051408000f0ff2700d8
:1015d40000806000504088000468ef00020037007b
:1015e40010c0b30004e8b70004c8bf000080fb00cb
:1015f400610060004a00dd0022168000f1bf2f0068
:1016040081006100010070002016880050408000b5
:101614006500b90000017800605525000090b9000c
:101624004f91de0002805000b02e88008040800080
:101634000000e00008003d00804080000080ea00d7
:1016440000f0a00090408800200f80000000ea0015
:10165400a04088000600370081408000f0ff27008a
:101664000080600090408800200f8000a040880027
:10167400a082200010407800e54f5000a7ff3a00f8
:10168400a082200089fd0700a082200061c0b30071
:1016940001487800a2ff3700a1ff37000000fa00dc
:1016a400113a8000f0fb2f000081600060042000ec
:1016b4007105200023742000804978008149780056
:1016c400824978002135800000fe2f0000806000f0
:1016d4004001b300203588002136800000fe2f0031
:1016e400008060003000b30020368800e1348000c0
:1016f40000fe2f0000806000a000b300e0348800ea
:10170400e1348000f00f2e008080600000b02000e3
:1017140001007000e0348800f134800000fe2f00e6
:10172400008060009001b300f0348800a13580008f
:1017340000fe2f00008060008001b300a035880007
:101744007136800000fe2f0000806000e000b300ce
:1017540070368800103a8000000178000260a00012
:101764006004200071052000237420008049780063
:101774008149780082497800c0e2a900c142a900e9
:101784000bff070078fe0700120007002a0007007d
:10179400020007000080fa00000006000000fa00c2
:1017a40000002800002e8800c225ef00f07c2000f5
:1017b400202e8800f0ff2000402e88000004200026
:1017c400502e880000f02f00a02e88000080fa0020
:1017d400000006000000fa002002a90001118000a8
:1017e40090ff2f00008060000011880020a2a90053
:1017f4002062a90020c2a900a00220004011880094
:1018040023a2a90023e2a90011118000f0f32f0004
:1018140000806000101188009580a8009560a800e1
:1018240021e2a8002342a80069100900000000007a
:101834000080fa00000006000000fa00f0df280033
:10184400300f88009b40a800e2e1a800110f80003f
:10185400f0f82f00008060000050a000100f8800f6
:10186400010f80000070200001007000000f88004c
:101874000080fa00000006000000fa009002200038
:10188400303a8800213a8000f0f32f000080600095
:10189400203a8800213a800000fe2f00008060007a
:1018a400203a880050012000403a880040a7a9004f
:1018b4003200200080072000a1092000337420009a
:1018c400804978008149780082497800120020001c
:1018d40060042000710520002374200080497800f2
:1018e400814978008249780000000000113a8000a4
:1018f400000027008080600000002300808f5000db
:10190400faff3a0000000000113a800000022000b3
:10191400008060000000e000fbff32000080fa005d
:10192400000006000200fa00000f78001e00e80024
:10193400b04088001628ed001608e20005003200c9
:10194400800c0800010000000000000000000000fe
:10195400f8ff37000080fa00000006000200fa00d9
:10196400000f78001e00e800b04088001628ed0043
:101974001608e20005003200dc0508000100000042
:101984000000000000000000f8ff37000080fa00ab
:041994000000060049
:020000040000fa
:1019980018080000240000000000000000460000b5
:1019a800000200000000000000080000160000000f
:1019b80000000000160800000200000000000000ff
:0419c800000000001b
:020000040000fa
:0200000401f009
:04000000ffff0000fe
:020000040000fa
:0200000401f009
:04000400ffff0000fa
:020000040000fa
:0200000401f009
:04000800ffff0000f6
:020000040000fa
:0200000401f009
:04000c00820000006e
:020000040000fa
:0200000401f009
:040010006500000087
:020000040000fa
:0200000401f009
:040014005f00000089
:020000040000fa
:0200000401f009
:04001800770000006d
:020000040000fa
:0200000401f009
:04001c00ddff000004
:00000001FF
